:020000040800F2
:10000000909D01248D04000835A10008C3830008D9
:100010002DA10008E51B000841B700080000000002
:10002000000000000000000000000000990300082C
:100030009D1C000800000000F5030008F5A500085D
:10004000A7040008A7040008A7040008A7040008E4
:10005000A7040008A7040008A7040008A7040008D4
:10006000A7040008A7040008A7040008851C0008CE
:10007000A7040008A7040008A7040008A7040008B4
:10008000A7040008A7040008A7040008A7040008A4
:10009000A7040008A7040008A7040008A704000894
:1000A000A7040008A7040008A7040008A704000884
:1000B000A7040008A7040008A7040008A704000874
:1000C000A7040008A7040008A7040008A704000864
:1000D000A7040008A7040008A7040008A704000854
:1000E000A7040008A704000800000000A7040008F7
:1000F000A7040008A7040008A7040008A704000834
:10010000A7040008A7040008A7040008A704000823
:10011000A7040008A7040008A7040008A704000813
:10012000A7040008A7040008A7040008A704000803
:10013000A7040008E12B0008A7040008A704000892
:1001400000000000000000000000000000000000AF
:10015000A7040008A7040008A7040008A7040008D3
:10016000A7040008A7040008A7040008A7040008C3
:10017000A704000839A10008A70400080000000037
:10018000A7040008A7040008A7040008A7040008A3
:1001900009A50008A7040008A7040008A704000890
:1001A00029930008A7040008911C0008A704000870
:1001B000A7040008A7040008A7040008A704000873
:1001C000A7040008A7040008A7040008A704000863
:1001D000A7040008A7040008A7040008A704000853
:1001E000A7040008A7040008A7040008A704000843
:1001F000A7040008A7040008A7040008A704000833
:10020000A7040008A7040008A7040008A704000822
:10021000A7040008A7040008A7040008A704000812
:10022000A7040008A7040008A704000800000000B5
:10023000A7040008A704000800000000A7040008A5
:10024000A7040008A7040008A7040008A7040008E2
:10025000A7040008A7040008A7040008A7040008D2
:10026000A7040008A7040008A7040008A7040008C2
:10027000A7040008A7040008A70400080000000065
:10028000A7040008A7040008A70400080000000055
:1002900000000000A704000800F002F800F06CF86D
:1002A0000AA090E8000C82448344AAF10107DA45D1
:1002B00001D100F061F8AFF2090EBAE80F0013F0B7
:1002C000010F18BFFB1A43F00103184730C40100A7
:1002D00050C401000A444FF0000C10F8013B13F029
:1002E000070408BF10F8014B1D1108BF10F8015B8F
:1002F000641E05D010F8016B641E01F8016BF9D182
:1003000013F0080F1EBF10F8014BAD1C0C1B09D1D8
:100310006D1E58BF01F801CBFAD505E014F8016B4A
:1003200001F8016B6D1EF9D59142D6D370470000DC
:100330000023002400250026103A28BF78C1FBD8EE
:10034000520728BF30C148BF0B607047642900F0D6
:100350005B81752900F05881782900F0918173291B
:1003600000F0BB84002070471FB51BF015FD00F0A6
:100370008CFA1FBD10B510BD00F0CAFC1146FFF786
:10038000F3FF0FF025FD00F0E8FC03B4FFF7F2FFE8
:1003900003BC0BF0F1F900002C4B19680868B0E8B9
:1003A000F04F80F30988BFF36F8F4FF0000080F3A8
:1003B000118870470000000008480068006880F35A
:1003C00008884FF0000080F3148862B661B6BFF36E
:1003D0004F8FBFF36F8F00DF00BF00BF08ED00E05D
:1003E000DFF80C00016841F470010160704700BF44
:1003F00088ED00E0EFF30980BFF36F8F134B1A68AD
:100400001EF0100F08BF20ED108A20E9F04F106099
:1004100009B44FF0500080F31188BFF34F8FBFF342
:100420006F8F1AF0D7FD4FF0000080F3118809BCE0
:1004300019680868B0E8F04F1EF0100F08BFB0EC64
:10044000108A80F30988BFF36F8F7047584C0024DF
:10045000EFF30580704700000B49D1F800C04A68EF
:100460005CF8043B1068184442F8040B8C4528BF24
:10047000A1F1DC0C8A4228BFA1F1DC02C1F800C066
:100480004A6020F0004070472497012409488047C3
:1004900009480047FEE7FEE7FEE7FEE7FEE7FEE766
:1004A000FEE7FEE7FEE7FEE704480549054A064B7E
:1004B00070470000B9A6000899020008909701242F
:1004C000909D01249099012490990124704710B5C2
:1004D0004C1084EA530404D54042C1F1000138BFF6
:1004E000491E1B4204D55242C3F1000338BF5B1EB4
:1004F00000F0EBFA14F0804F04D04042C1F100014B
:1005000038BF491E14F0004F04D05242C3F100031B
:1005100038BF5B1E10BD00000FB4044910B503AA1C
:10052000029800F0DFFB10BC5DF814FBD8490024F2
:100530000FB47CB50C0009AA009001D02044401EE5
:10054000084B7B4469460190089800F094FB0546EF
:100550001CB10020694600F0A1FB28467CBC5DF878
:1005600014FB00006107000070B50446856900684F
:10057000C10601D5302600E02026C00707D070BD97
:10058000D4E9012130469047206A401C20626D1E4C
:10059000F6D570BD70B5044685690078C00707D1EF
:1005A00070BDD4E9012120209047206A401C2062C0
:1005B0006D1EF6D570BD70B50C460546012A05D0F6
:1005C0002878800600D5EA69002302E0012305E0CF
:1005D0005B1C934202D2E05C0028F9D1A869E618BE
:1005E000C01AA861286A184428622846FFF7BCFF91
:1005F00004E0D5E9012114F8010B9047B442F8D387
:100600002846FFF7C7FF70BD2DE9F04106460024DC
:1006100010687529314616A510D0AFF30080002868
:1006200002DA404213A507E031688A0701D512A516
:1006300002E0490704D511A5012401E0AFF30080D1
:1006400000210A2206F1240709E0B0FBF2FCB0FB0E
:10065000F2F302FB1C00303078541846491C002885
:10066000F3D123462A463046BDE8F04100F0A4BA53
:10067000000000002D0000002B0000002000000002
:1006800070B504460D4621461068AFF300802188FE
:10069000090502D50F4A7A4402E00E4A7A440E3226
:1006A000002104F1240305E000F00F060009965D27
:1006B0005E54491C0028F7D120780023000704D598
:1006C000702D02D009B1022311322046BDE87040DE
:1006D00000F072BAE8BA01002DE9F05F89460446DD
:1006E0004FF0000ADFF874B1FB44C0F820A02046A8
:1006F000E1688847002874D0252806D0D4E9012174
:100700009047206A401C2062F1E700265F462046A1
:10071000E16888472028054607DB312D05D2781986
:1007200010F8200C08B10643F1E7B00701D526F018
:100730000406C4F81CA00027C4F818A02A2D09D06C
:1007400028460BF012F838B304EB8708303DC8F8A0
:10075000185019E059F8041B204604EB87029161F8
:10076000E1688847012F054618D1E069002820DAA2
:1007700026F020061DE0D8F8180000EB800005EBFD
:1007800040003038C8F818002046E1688847054620
:100790000AF0EBFF0028EED1012F0AD02E2D08D150
:1007A0002046E16888477F1C0546022F46F0200658
:1007B000C4DBA069002803DA404246F00106A061CC
:1007C000F00701D026F010066C2D0BD0682D09D053
:1007D0004C2D39D06A2D35D0742D35D07A2D33D0AB
:1007E00016E038E0E1682F4620468847B8420546C3
:1007F00009D16C2F26D04FF48060E1680643204673
:100800008847054604E06C2F1AD04FF480700643E9
:100810000DB3A5F14100192802D8203546F4006631
:100820004A462946204626604E46FFF78FFD80B196
:1008300001280BD0F61D26F0070000F1080956E745
:100840004020E4E78020D8E70020D6E706F104093D
:100850004DE7284652E7206ABDE8F09FBEBA010086
:100860000B4910B5A1F17C020A4CC2E937123721BD
:1008700006E000EB104342F82130074B00FB034039
:100880000B1EA1F10101F4DC10BD0120E8E700001E
:10089000C4960124E119D666CD0D010040EA01039A
:1008A00010B59B070FD1042A0DD310C808C9121F19
:1008B0009C42F8D020BA19BA884201D9012010BD53
:1008C0004FF0FF3010BD1AB1D30703D0521C07E020
:1008D000002010BD10F8013B11F8014B1B1B07D184
:1008E00010F8013B11F8014B1B1B01D1921EF1D1F5
:1008F000184610BD10B5431C02E010F8011B71B181
:100900008107FAD14FF0013202C88C1A8C4314EAE5
:10091000C211F9D0C01A0A0603D0C01E10BDC01AF9
:1009200010BD0A0401D0801E10BD0902FCD0401E7B
:1009300010BD032A40F2308010F0030C00F0158047
:1009400011F8013BBCF1020F624498BF11F801CBD2
:1009500000F8013B38BF11F8013BA2F1040298BF37
:1009600000F801CB38BF00F8013B11F0030300F0A1
:100970002580083AC0F0088051F8043B083A51F845
:1009800004CBA0E80810F5E7121D5CBF51F8043B4A
:1009900040F8043BAFF30080D20724BF11F8013BBD
:1009A00011F801CB48BF11F8012B24BF00F8013B1F
:1009B00000F801CB48BF00F8012B704710B5203A72
:1009C000C0F00B80B1E81850203AA0E81850B1E808
:1009D0001850A0E81850BFF4F5AF5FEA027C24BFBE
:1009E000B1E81850A0E8185044BF18C918C0BDE8B5
:1009F00010405FEA827C24BF51F8043B40F8043B7E
:100A000008BF7047D20728BF31F8023B48BF11F832
:100A1000012B28BF20F8023B48BF00F8012B70478C
:100A200002F0FF0343EA032242EA024200F002B866
:100A30004FF000020429C0F0128010F0030C00F007
:100A40001B80CCF1040CBCF1020F18BF00F8012B85
:100A5000A8BF20F8022BA1EB0C0100F00DB85FEA53
:100A6000C17C24BF00F8012B00F8012B48BF00F81F
:100A7000012B70474FF0000200B51346944696468E
:100A8000203922BFA0E80C50A0E80C50B1F12001A1
:100A9000BFF4F7AF090728BFA0E80C5048BF0CC04F
:100AA0005DF804EB890028BF40F8042B08BF7047AD
:100AB00048BF20F8022B11F0804F18BF00F8012B1F
:100AC0007047704770477047704753EA020C00F058
:100AD00069802DE9F04B4FF00006002B1FBFB3FAE1
:100AE00083F503FA05F424FA05F65E4012BF1643B7
:100AF000B2FA82F502FA05F4C5F120051EBF22FA0A
:100B000005FC44EA0C04203556EA044C4FEA144430
:100B100018BF641C4FF000084FF00009904271EBC1
:100B2000030C39D3002919BFB1FA81F701FA07F68E
:100B3000B0FA80F700FA07F6C7F120071EBF20FAC7
:100B400007FC46EA0C062037B6FBF4FCA7EB0507CA
:100B5000103F07F01F0BCBF120060CFA0BFB2CFA11
:100B600006F644BFB3460026202FA4BF5E464FF0D2
:100B7000000B5BEA060C08BF4FF0010B19EB0B09E9
:100B8000ABFB027C48EB0608C01B06FB02CC0BFB50
:100B900003CC71EB0C01C1E70B46024641464846C7
:100BA000BDE8F08B13B54FF000004FF00001AFF33C
:100BB0000080BDE81C4070472DE9F0470D4699467E
:100BC0009246044600F124080168880604D5E069CD
:100BD00021F01001216000E00120A84201DD471B47
:100BE00000E00027A1697A1902EB0900081AA06148
:100BF0002078C00602D42046FFF7B6FC002608E0A5
:100C0000D4E901211AF806009047206A401C761C9E
:100C100020624E45F4DB2078C0060AD52046FFF757
:100C2000A3FC06E0D4E9012130209047206A401C53
:100C30002062381EA7F10107F4DC07E0D4E90121A6
:100C400018F805009047206A401C2062281EA5F174
:100C50000105F3DC2046FFF79DFC2078000602D555
:100C60000220BDE8F0870120FBE7000001694A1C73
:100C700002610878704700B58FB0CDE901310021DD
:100C8000059105497944CDE9031011466846FFF7FF
:100C900023FD0FB000BD0000E5FFFFFF0A6802F86A
:100CA000010B0A607047D1E900239A4202D2531C1B
:100CB0000B601070704710B5436913B1AFF300803B
:100CC00001E0FFF778FC012010BD127800F124014B
:100CD0000A7000224A700122EDE711684FF0FF32DE
:100CE000E9E70000074B70B50D467B44FFF7C3FFF3
:100CF000044628460BF0F2FF10B14FF0FF3070BDF4
:100D0000204670BDBBC30000004870472C970124EB
:100D10007546FFF7F9FFAE4605006946534620F0D9
:100D20000700854618B020B5FFF7BEFBBDE82040A0
:100D30004FF000064FF000074FF000084FF0000B97
:100D400021F00701AC46ACE8C009ACE8C009ACE84A
:100D5000C009ACE8C0098D4670470446AFF3008077
:100D60002046FFF712FB10B500F008F807F04EFB25
:100D700007F0B0FBBDE8104007F054BC2DE9F0438C
:100D8000294D87B0287800284AD12848016841F0C9
:100D900002010160016801F002010591016841F062
:100DA0000801016000680022DFF88490402100F013
:100DB00008000590484605F09EF800246946012683
:100DC00040200090CDE9016448460394049404F067
:100DD00077FFDFF860804FF4C07701223946404644
:100DE00005F089F811200097CDE9010469464046D5
:100DF0000394049404F064FF4FF47A74204607F0DF
:100E0000E5FA01224846402105F075F8204607F032
:100E1000DDFA686818B901201AF0B0F968602E7020
:100E200007B0BDE8F0830000D04D0024E044025834
:100E3000000C02580004025870B57F2804464FF099
:100E4000FF350FD8FFF79AFF07F0E0FA07F0AEFB87
:100E50006006000E07F062FB044607F0C5FB07F0D2
:100E6000E1FB0CB1284670BD002070BD2DE9F047B4
:100E700016001D46894604464FF0FF3811D085B153
:100E8000FFF77CFF07F0C2FA07F090FB6006000E48
:100E900007F044FB0746484607F040FB384303D0C1
:100EA0000BE04046BDE8F08707F080FB012000EB37
:100EB0004400C0B207F032FB30B107F095FB07F0F9
:100EC00009FB07F0AFFBECE7002409E0601CA84237
:100ED00001D2012000E0002007F0AAFA3055641C7E
:100EE000AC42F3D307F080FB07F09CFB0020D9E76E
:100EF0002DE9F0410E00154607464FF0FF3413D0A0
:100F000095B1FFF73BFF07F081FA07F04FFB012097
:100F100000EB4700C0B207F001FB40B107F064FBF3
:100F200007F0D8FA07F07EFB2046BDE8F0810024E8
:100F300009E0601CA84201D2012000E0002007F077
:100F400077FA3055641CAC42F3D307F04DFB07F041
:100F500069FB0020E9E70123FFF788BF2DE9F0478F
:100F600017001E46894604464FF0FF3812D08EB156
:100F7000FFF704FF07F04AFA07F018FB6006000EBF
:100F800007F0CCFA0546484607F0C8FA40EA0504DF
:100F9000002507E04046BDE8F087785D07F0BEFA1F
:100FA00004436D1CB542F8D307F01EFB24B107F0D3
:100FB00091FA07F037FBEDE707F034FB0020EAE792
:100FC0002DE9F0410F00164604464FF0FF380DD0D2
:100FD00066B1FFF7D3FE07F019FA07F0E7FA6006EB
:100FE000000E07F09BFA0025044607E04046BDE8E6
:100FF000F081785D07F092FA04436D1CB542F8D396
:1010000007F0F2FA24B107F065FA07F00BFBEDE701
:1010100007F008FB0020EAE707B5012302AAFFF763
:101020009DFF0EBD0749012008604FF4FA5010F0F3
:10103000EDFE4FF47A7400BF00F020F9204610F066
:10104000E5FEF9E77895012470B531240546FF20C7
:1010500000220DE0AE5C00237040060602D584EA53
:10106000400000E040005B1C082BC0B2F5D3521CCE
:101070008A42EFD370BD000070B505000DD019F0A5
:10108000A7FD0748047824B1064920222846FFF727
:1010900095FC19F0BDFD204670BD002070BD00001C
:1010A000BC4D0024B495012470B512483C21FFF7D3
:1010B000E1FC104820213C30FFF7DCFC0E49002009
:1010C0000870FFF75BFE0B4E0125402486F83B506D
:1010D000E0B2FFF7B1FE40B9A4F1400096F8391034
:1010E00005FA00F0014386F83910641C472CEFD94B
:1010F00070BD000078950124BC4D0024984201DDAC
:1011000003207047904201DD02207047884201DDD4
:101110000120704700207047F8B50446087816464D
:101120000D464FF0FF3780B905228DF800202723A8
:10113000204600216A468DF801300223FFF70EFF9A
:1011400008B13846F8BD012028700121204602234D
:101150006A46FFF78BFE00284FF0000002D028708F
:10116000801EF8BDBDF8000040BA30800020F8BDF8
:101170002DE9FE430746FD2001228DF8080044209A
:1011800002A9FFF71DFF18B14FF0FF30BDE8FE8345
:101190000F2010F03BFE062269464420FFF7A8FE10
:1011A00010B16FF00100F1E702216846FFF74CFF34
:1011B0009DF80210884208D102210DF10300FFF7CB
:1011C00043FF9DF80510884202D06FF00200DDE772
:1011D000BDF8030047F6FF72BDF800104FF6FF7828
:1011E000002345BA44F25C404EBAA6FB00018018C9
:1011F000424641F10001FFF76AF9A0F5885440F238
:10120000E240943C47F6FF72A5FB000100238018E2
:10121000424641F10001FFF75AF93C3801D5002060
:1012200004E04FF47A71884200DD08460C49002C36
:101230004FF00A028E85CD8501DB611D00E0611F44
:1012400041F6641391FBF2F141F27072B96041F220
:10125000A861B8812046FFF751FFF876002095E796
:10126000789501240278FF2A02D20278521C02707B
:101270000078032801D30020087070472DE9F04161
:101280008AB019F0A5FC614920226846FFF796FB59
:1012900019F0BEFC0098401C009004F037FE5B4E35
:1012A000002701903C3E0124706840BBDFF860815C
:1012B000002586F83A7086F8397000BF18F80500E6
:1012C000FFF7BAFD30B996F83A1004FA05F0014379
:1012D00086F83A106D1C072DF0D34025A046E8B2E1
:1012E000FFF7AAFD40B9A5F1400108FA01F096F810
:1012F0003910014386F839106D1C472DEFD9684627
:10130000FFF736FF3062E8B3404806A90838FFF718
:10131000A9FFF068401CF0603C49412008AAADF8E4
:101320002070491FFFF7F8FE706260B337480DF177
:101330001901C01FFFF796FF7069401CC6F8140022
:101340003249402008AAADF82070091FFFF7E4FEDB
:10135000B062E8B32D480DF11A01801FFFF782FF3C
:10136000F069401CC6F81C0019F032FC2748202206
:101370006946FFF723FB2748047019F049FC7068A1
:10138000401C01E004E00BE070600AB0BDE8F081B1
:101390008DF8184086F83470B068401CB060BBE728
:1013A000BDF920002821308690FBF1F140F634038E
:1013B0004FF4AF62049140F2A641FFF79FFE8DF813
:1013C0001C008DF8194086F835703069401C00E02B
:1013D00001E03061B4E7BDF9200070864FF4965308
:1013E0004FF44862C11700EB5171C91005914FF4D9
:1013F0002A61FFF783FE8DF81D008DF81A4086F8EC
:101400003670B069401CB061AEE70000B4950124AD
:101410002CC10108BC4D0024184C0125256000207A
:1014200000F02CFA18B1A168491CA160206342F2B7
:10143000107010F0EBFC4FF47A7600BF00F0C4F8A7
:10144000206330B1A068401CA060304610F0DEFC84
:10145000F4E784F83A5009484830857494F83C0021
:101460000B2809D05FF0000000F064FA00F0BAFA2F
:10147000642010F0CBFCF1E70120F5E7D4950124BE
:101480002DE9F041050005D00B2D03D04FF0FF30C2
:10149000BDE8F0812E4C94F83A00D8B10B2D1CD049
:1014A0005FF0000619F094FBDFF8A48008F148080B
:1014B000B8F80C7019F0ACFBB74213D194F83C00AB
:1014C000A8420FD10B2D0BD05FF0000000F032FAD4
:1014D0000120DDE76FF00100DAE740F2B316E1E743
:1014E0000120F3E7002000F025FA57B1002000F0BA
:1014F00056FB30B1216A491C216220636FF0020063
:10150000C6E776B1304600F04AFB070009D000205C
:1015100000F045FB206A401C206227636FF0030047
:10152000B6E70B2D12D0002000F004FA19F050FBA2
:10153000A8F80C6088F81350A68684F83C50E0693F
:10154000401CE06119F064FB0020A1E70120EBE7FB
:10155000D4950124012809D002280AD05FF0640044
:10156000B1FBF0F040F30000401C70474FF4FA70FC
:10157000F6E7FA20F4E7000010B504000DD019F0EA
:1015800027FB074914222046FFF718FA19F040FB01
:101590000348483890F83A0010BD002010BD000004
:1015A0001C9601240648482110B5FFF763FA044849
:1015B00014214830FFF75EFA02490020886010BD10
:1015C000D4950124C04D00244C4800B589B006AA2A
:1015D000808905A900F098F89DF8142004212220A4
:1015E000FFF71AFD00287DD19DF818200521222043
:1015F000FFF712FD00287FD1FF2206212220FFF7EE
:101600000BFD002878D100225C212220FFF704FD89
:10161000002871D1FF2240212220FFF7FDFC002885
:101620006AD1FF2241212220FFF7F6FC002863D176
:10163000FF2242212220FFF7EFFC00285CD1FF228D
:1016400043212220FFF7E8FC002855D1FF22442146
:101650002220FFF7E1FC00284ED1FF224521222065
:10166000FFF7DAFC002847D100220C212220FFF7E7
:10167000D3FC002840D1C0220D212220FFF7CCFC52
:10168000002839D1E0220E212220FFF7C5FC0028D6
:1016900032D1072147F6FF72412000F075FA002889
:1016A0002AD1062148F20102412000F06DFA0028FB
:1016B00022D102230621412007AAFFF7D7FB0028E9
:1016C0001AD10F48016841F0800101600068802153
:1016D000009100F08000089000200122CDE9012057
:1016E000039000E008E004906946064804F0E8FA38
:1016F000002000F01FF9002009B000BD1C96012455
:10170000E0440258001C025830B5C0F30D0020F42C
:101710000070FF23C4430C70C50500D5FE234105AE
:1017200001D503F0FD03010501D503F0FB0381049E
:1017300001D503F0F703C00401D503F0EF031370E4
:1017400030BD000030B587B004F0E0FB0021364A20
:101750008DF800108DF804108DF808108DF80C101D
:101760008DF810108DF814105168411AB1F5FA7FF8
:101770003CD35060002122206A46FFF7ECFB0400B6
:1017800021D10121222001AAFFF7E5FB04001AD193
:101790000221222002AAFFF7DEFB040013D104215C
:1017A000222003AAFFF7D7FB04000CD10521222039
:1017B00004AAFFF7D0FB040005D10621222005AAC8
:1017C000FFF7C9FB044619F003FA184D6C64802139
:1017D000174804F08BFB012800D0002085F8430057
:1017E00034B1A86A401CA86219F012FA07B030BDE3
:1017F0009DF8000085F83D009DF8040085F83E0046
:101800009DF8080085F83F009DF80C0085F8400021
:101810009DF8100085F841009DF8140085F84200FD
:10182000686A401C6862DFE7C04D0024D49501243B
:10183000001C02582DE9F04101280C4605460CD841
:101840005CB10D4F97F83A0038B107F14806B0681F
:10185000A04205D10120BDE8F0814FF0FF30FAE74A
:1018600019F0B6F9F573B460FC6287F8385019F0D6
:10187000CFF90020EFE70000D495012438B504002B
:1018800001D0C82201E047F6FF720721412000F095
:101890007BF950EA040105D102236A460621412062
:1018A000FFF7E4FA38BD00002DE9F04706000D46C9
:1018B00001D00B2E07D135B11D4CA068A84205D12F
:1018C0000120BDE8F0874FF0FF30FAE794F813905D
:1018D0003046FFF7D5FD002802DA6FF00100F0E78F
:1018E000304607F07FFFDFF848800700A8F148087E
:1018F0000CD04846FFF7C4FDD8F80810491CC8F8BA
:101900000810C8F830706FF00200DAE719F060F9DB
:10191000E674A560C8F82C50D8F81810491CC8F80F
:10192000181088F83B6019F073F90020C9E700002F
:101930001C96012420B100220248802104F0DBBA69
:101940000122F9E7001C02582DE9F0470646174628
:10195000401E88460E2811D20A2E0FD0B8F1010F72
:101960000CD85FB11E4C94F83A0038B104F1480528
:10197000A868B84205D10120BDE8F0874FF0FF30DC
:10198000FAE719F025F9A946AD8919F041F90120C6
:10199000761EB8F1000F00FA06F002D080B20543BF
:1019A00000E08543C5F30D0020F40075284600F0E3
:1019B000F6F830B1A168491CA16020636FF0010006
:1019C000DAE719F005F9A9F80C50C9F80870E762D0
:1019D000E068401CE060A58619F01AF90020CBE70A
:1019E000D49501242DE9F04F89B004F08FFA002638
:1019F00081463746344635466846FFF73DFB0028AA
:101A000070D09DF8190008B19DF81C609DF81A006F
:101A100020B19DF81D00B04200D906469DF818007F
:101A200008B19DF81B70B74201D9384600E0304636
:101A300080462EB149463046FFF78CFD00B10124A7
:101A40009DF8190028B19DF81A0010B10EB944F0A4
:101A500002049DF8180018B11FB944F0040407E00F
:101A600037B149463846FFF775FD08B144F0080420
:101A70004348816849B1A9EB010141F28833994299
:101A800003D2012744F0100400E0002783460078C9
:101A9000DFF8F0A0844210D0E043C0B240F0E00292
:101AA00006212220FFF7B8FA050006D18BF8004086
:101AB000DAF81010491CCAF8101032484830C07BC0
:101AC000D0B9B8F1020F404616D3014648460AD1B4
:101AD0004FF4FA71B0FBF1F201FB1290FA280BD22D
:101AE00001260AE03FE0032906D1C821B0FBF1F24C
:101AF00001FB12906428F3D3002645B99BF801003E
:101B0000864209D03046FFF7B9FE05002ED0DAF83C
:101B10000810491CCAF80810FFF714FE19F058F80D
:101B200018484830016801F10101C0E900198473C7
:101B300080F8108047740DB300228274DAF8042014
:101B4000521CCAF80420CAF830508289AAF83420FE
:101B50008AF836408AF83760C07B8AF838008AF8FD
:101B6000398019F055F809B0BDE8F08F8BF80160A5
:101B7000DAF81410491CCAF81410CDE70122DCE78A
:101B8000C04D0024D495012408B5130A8DF8003007
:101B900002238DF801206A46FFF7E0F908BD1CB565
:101BA00001AA6946FFF7B0FD9DF80020042122201C
:101BB000FFF732FA002805D19DF8042005212220E4
:101BC000FFF72AFA1CBD64207047002806D0642164
:101BD000C0230370A82242708170C170704741F227
:101BE0008D307047032002F085FBFEE7234900207B
:101BF000F0B50A68920311D4BFF34F8FBFF36F8F14
:101C00001F4A1060BFF34F8FBFF36F8F0A6842F413
:101C100000320A60BFF34F8FBFF36F8F0A68D203A1
:101C200023D4164A70321060BFF34F8F101F43F653
:101C3000FF740068124D1035C0F34E32C0F3C90373
:101C400004EA4216184600BF46EA80772F60401E1D
:101C5000FAD2521EF4D2BFF34F8F086840F480309E
:101C60000860BFF34F8FBFF36F8F086820F0080044
:101C70000860BFF34F8FBFF36F8FF0BD14ED00E02E
:101C800050EF00E0014802F0F9BD000020530024AD
:101C9000014802F0BFBB0000545000247047000010
:101CA000DFF8A882ADF5147D00254FF0FF3A012042
:101CB000A9468C9554462E46C8F800004FF47A7019
:101CC00010F0A4F802F074F8A14F01224FF4C07193
:101CD000384604F010F902F08FF90122384611025B
:101CE00004F009F907F00EFC9A4805701C229A4985
:101CF0008DA8FEF763FE00218DA810F033FA08B915
:101D0000C8F868A001A8FFF760FF0198AB469DF8EE
:101D10000710022203BA2846729023F0FF05739041
:101D20000D43749075908DF8C921FFF758FF070295
:101D3000FFF755FF29BA47EA1020ADF8CA017391A1
:101D400004F0E4F8054600F57A708190EFE072A99E
:101D5000204601F005F900BF04F0D8F80746401B03
:101D60003AD4FFF730FFC51976A807F01BFCB8B1CD
:101D70004FF00109C8F85CB0761C85A8FFF7FCFBA2
:101D800038B19DF827129DF8FC01814201D0FFF780
:101D900077FB0520B6FBF0F100FB1160E8B12CE009
:101DA000D8F81410491CC8F814106C49496CC8F8CC
:101DB0005C10D8F81010D8F81430D8F80C20D8F8E7
:101DC00004000B4408B1012100E000215FEA090092
:101DD00000D076A807F0AEF9AFE001F057FE08B1E9
:101DE000012100E00021D8F81030D8F81470D8F89C
:101DF0000C2076A83B4407F09DF901F047FE00282F
:101E000017D0002C1BDA0120019002211122084674
:101E10000DF07CFF0400D8F80800414600F10100F5
:101E2000C8F80800C8F8604004D54D48544600681A
:101E3000886682E04B4901AA20460CF00DFD4FF464
:101E4000E07202A976A800F073FE0028839002DDFC
:101E5000B0F5E07F05D3D8F81010491CC8F8101071
:101E60006BE0102172A80023CDE90001839A02A93A
:101E700020460DF019FE00284746C8F864008398F4
:101E8000C8F834007698C8F838007898C8F83C004C
:101E9000BDF8E801A8F8400010DA31480068B866DB
:101EA0003869401C386120460CF038FC3B695446C8
:101EB000FA68032176A807F03DF935E00521C7F857
:101EC00068B0FA68521CFA60F868B0FBF1F201FBE6
:101ED000120038B9D8F81030D8F80C20022176A8B2
:101EE00007F028F904F012F8002C074625DB81984A
:101EF000381A22D44FF4E070009002AB20468CAA2E
:101F000072A901F0DFFA002814D016DAD8F82C10E4
:101F100001F10101C8F82C1011490968C8F86810CE
:101F200020460CF0FBFB54460A200FF06FFF01F037
:101F3000EDFF11E707F57A7781970A200FF066FF2A
:101F400001F0E4FF002CF4DB01E70000288F0124FE
:101F5000001C0258954D002410C10108948F0124E3
:101F60008C4D00247E660480104810B503F033F8D1
:101F70000F49104B104AC1F82001D3F860010F4BF4
:101F8000C1F8300112680E48C1F834211A68C1F84E
:101F900038210268C1F83C214268C1F840218268BA
:101FA000C1F84421C068C1F8480110BDD85A0024C6
:101FB000F44900240090024000800240088D024055
:101FC000800000302DE9F04F4C48C16A026B436A33
:101FD000846A056C466C476ED0F86CC0D0F81080EF
:101FE0001FFA83F91FFA84FA89B292B2ACB2B3B283
:101FF0001FFA87FB1FFA8CFEB8F11F0F01D80125CD
:1020000000E000253D48960AC4F3400746EA8111E6
:10201000C2F305144567C3F342184FEADB3C02F0F4
:102020000F0203F01F03CAF380068167CAF3C001E1
:10203000C467CAF34014C0F88020CAF30012C0F885
:102040008480C0F88830C0F88C60C0F89010C0F868
:102050009440C0F89820C0F89C70C0F8A4C0D0F894
:10206000A400F8B100222548CBF34033C9F38034F3
:10207000C9F3C025C9F38026C0F8A020C9F30037F2
:10208000C9F34021C0F8A830C0F8B840C0F8BC502F
:10209000C0F8C060C0F8C470C0F8C810D0F8B8105C
:1020A00011B10FE00122DEE7D0F8BC1051B9D0F831
:1020B000C01039B9D0F8C41021B1D0F8A01009B1BE
:1020C000012400E00024C0F8B44000230122CEF334
:1020D00082010629C0F8AC30C0F8B03008D002291F
:1020E00009D0052902D100BFC0F8B020BDE8F08FAB
:1020F000C0F8AC20F8E7C0F8AC20F7E7F4490024BA
:10210000F0B599B0074664216846FEF7B3FC2C4E43
:102110004FF480454FF4045268100446716800295A
:102120004FF0FF3107D0022F12D0032F06D0042F1B
:1021300007D0052F09D0084619B0F0BD002402468B
:1021400006E000254FF4807202E000252C462A4666
:102150001C4800681F2802D8002100F091FE194891
:102160006946E83802F03AFF16486946CDE9055459
:10217000E83803F06BFB1348E83803F0A7FB7068FE
:102180000FF0F4FD70680FF091FD0D48012118303B
:10219000C0F86C11D0F87011491CC0F87011C0F86B
:1021A0007471716891F82D2002F00102C0F8CC2002
:1021B00091F82D10C1F38001C0F8D0100020BBE7CA
:1021C000DC490024C05B00242DE9FC41674D00265A
:1021D000D5F8C8113446664800290768019600966C
:1021E00006D01F2F06D9F01EC5F8D001C5F8C8616A
:1021F000BDE8FC811A294FF0FF3840F6B8306ED2A6
:10220000DFE801F0850D101C1F2225272B303B48ED
:1022100059632D666B6E70727689939B9EB14FF4F5
:10222000004218E00021384601AA00F01BFE04001D
:1022300017D1019840F4905201920CE04FF40452EF
:1022400009E04FF4005206E04FF4807203E00022F0
:1022500001E04FF4C242002128E000F03BFB00F017
:102260008DF874E01B216A46384600F0FBFD04003F
:102270006DD1009820F4004009E01B216A463846E1
:1022800000F0F0FD040062D1009840F4004020F41A
:10229000005209E01B216A46384600F0E3FD0400C5
:1022A00055D1009840F4204200921B21384600F09E
:1022B000E7FD04464BE0D5F8CC0120B1D5F8CC01C0
:1022C00000F062FA43E02B48FAE700F03FF93EE005
:1022D000C5F86C6100F0E2FDEBE7022005E016E0D6
:1022E000032002E0042000E00520FFF709FFE0E7FB
:1022F0001E481838406850B1D5F87C11491CC5F803
:102300007C11011D0AF036F9C5F8780108B1444680
:102310001DE000241BE0D5F8CC0120B1D5F8CC019C
:1023200000F068FA13E01448FAE7D5F8CC1109B1C7
:10233000D5F8CC0100F000FB09E0FFF715FE06E040
:10234000D5F8CC1109B1D5F8CC0100F077FBC5F870
:10235000D041D5F8D401401CC5F8D401C5F8C861F6
:1023600000F00CF844E700F0A1F8A2E7F4490024DB
:10237000C05B0024A0860100400D030038B54A4828
:102380004FF0FF31474C056825616162A162E1624F
:1023900021636163A163E16321646164A164E16419
:1023A0006166A166E16621671F2D79D800216A4622
:1023B000284600F057FD08B90098606201216A467E
:1023C000284600F04FFD08B90098206701216A46B1
:1023D000284600F047FD08B90098A06202216A462D
:1023E000284600F03FFD08B90098E06203216A46E4
:1023F000284600F037FD08B90098206304216A469A
:10240000284600F02FFD08B90098606305216A4650
:10241000284600F027FD08B90098A06306216A4607
:10242000284600F01FFD08B90098E06311216A46B4
:10243000284600F017FD08B90098206412216A466A
:10244000284600F00FFD08B90098606418216A461C
:10245000284600F007FD08B90098A06419216A46D3
:10246000284600F0FFFC08B90098E0641B216A468A
:10247000284600F0F7FC08B9009860661D216A46FE
:10248000284600F0EFFC08B90098A0661F216A46B4
:10249000284600F0E7FC08B90098E066FFF792FDD7
:1024A00038BD0000F4490024C05B00242548F8B57D
:1024B000056800201F2D009001D9C01EF8BD224CD8
:1024C0004FF0FF31606D401C6065A164E1642165DF
:1024D000A165E165216618216A46284600F0C2FC24
:1024E0000028EBD10098A06419216A46284600F024
:1024F000B9FC0028E2D10098E064192140F40042C0
:10250000284600F0BDFC0028D8D100266A461921D3
:10251000284600F0A7FC0028D0D1009820650104CF
:1025200005D501200FF072FC761C642EEED30098C6
:10253000C0F30021A165C0F34122C0B2E26520666C
:102540000020F8BDC05B0024F44900242DE9F04FC1
:10255000BFB0402114A8FEF78DFA4FF0000BCDF864
:1025600044B038215D4603A8CDF848B0CDF84CB052
:10257000FEF780FA642124A8FEF77CFA7C4C4FF029
:10258000FF3A3D957B4BD4F8F0217C487A4E521CA3
:102590000068C4F8F021C4F8F4A1C4F8F8A1C4F8A4
:1025A000FC51C4F80052C4F804323268754FDFF8A9
:1025B000D081DFF8D091303FC4F80822D8F86021EC
:1025C000C4F80C22D9F8001004F5F8741F284FF055
:1025D0000006216239686162A562E562A4F5F874BB
:1025E00004D800214FF4C24200F04AFC634824A9F9
:1025F000E83802F0F3FC4FF480404110CDE92901A6
:102600005E4824A9E83803F021F95C4AE83AA2F1CF
:102610003C0100205268135C0B540B18155C401CE5
:1026200006289D71F7D388230B73B5254D735A2265
:102630008A73A520C8730A74487412200854401C79
:102640003C28FBD33C205D462122CDE9120BCDE98D
:1026500003204FF4403311A805904848CDE907B353
:10266000E838CDE910B103F031F94448642203A9F8
:10267000E83803F0C0F94049BB46C4F8F4010B68E0
:102680003846C4F80832D8F860210027C4F80C2274
:10269000D9F80010C4F810120068C4F814023D956F
:1026A000D4F81802401CC4F8180234483DA9E83890
:1026B00002F08FFF50B93D9840B1D4F81C02401C85
:1026C000C4F81C02C4F8F8513D9E05E001200FF04B
:1026D0009DFB7F1CC82FE2D3D8F860014D465F46B2
:1026E000C4F80C02D9F80000C4F81002DBF80000AE
:1026F000C4F814025EB33289C4F8FC21122A22D332
:10270000402A00D940223046002314A910F048F98D
:102710009DF85C00882816D19DF85D00B52812D17F
:102720009DF85E005A280ED19DF85F00A5280AD1B9
:102730009DF860005A2806D19DF86100A52802D1B5
:102740000120C4F80002304610F0B8F901E0C4F8E6
:10275000F8A1D8F86001C4F80C022868C4F8100287
:102760003868C4F8140200F099FB3FB0BDE8F08F60
:10277000F4490024A55AA55A00800240C05B0024F9
:1027800000900240388D02401849002270B5184D63
:10279000C1F8D801C1F8DC21C1F8E021C1F8E42179
:1027A0002A690024C2F34002C1F8E821C1F8EC21F3
:1027B00017E02B69C3F340032BB1D1F8E061761C1D
:1027C000C1F8E06104E0D1F8E461761CC1F8E4618D
:1027D000934205D01A46D1F8DC315B1CC1F8DC31DC
:1027E000641C8442E5D3C1F8EC2170BDF449002497
:1027F0000000025834490022F0B5344CC1F8800181
:10280000C1F88421C1F88821C1F88C21C1F8902138
:10281000C1F89421C1F8982122690023120600D53D
:1028200001232B4F3A68D20601D543F002033A68E0
:10283000920601D543F00403C1F89C310026C1F88B
:10284000A0313CE0256900222D0600D501223D681B
:10285000ED0601D542F002023D68AD0601D542F019
:102860000402D50704D0D1F884516D1CC1F88451FD
:10287000950704D5D1F88C516D1CC1F88C515507C2
:1028800004D5D1F894516D1CC1F8945182EA030526
:10289000EB0704D0D1F888315B1CC1F88831AB0755
:1028A00004D5D1F890315B1CC1F890316B0704D589
:1028B000D1F898315B1CC1F89831761C13468642DA
:1028C000C0D3C1F8A031F0BDF44900240000025883
:1028D000100802582DE9FC41164E00204FF0FF343D
:1028E0007061B461F4613462270C05466A460221C6
:1028F00028460094019400F0B5FAB0B903212846A7
:1029000001AA00F0AFFA80B9009870B1B8420CD0BB
:10291000019951B1B94208D07269521C7261B26911
:10292000521C02D1B561F06131626D1C1F2DDDD9E1
:10293000BDE8FC81F44900242DE9F05F3C4C804661
:10294000DFF8F0900020C4F88001C4F88401C4F8D6
:102950008801C4F88C01C4F89001C4F89401C4F84B
:102960009801D9F8100000263546000600D501254B
:1029700031480168C90601D545F002058246006864
:10298000800601D545F00405C4F89C51C4F8A05157
:1029900003F0BCFA0746CB46D1460020DBF8101006
:1029A000090600D50120D9F800204946D20601D5F4
:1029B00040F002000968890601D540F00400C10713
:1029C00004D0D4F88411491CC4F88411810704D5BB
:1029D000D4F88C11491CC4F88C11410704D5D4F8E3
:1029E0009411491CC4F8941180EA0501CA0704D067
:1029F000D4F88821521CC4F888218A0704D5D4F859
:102A00009021521CC4F89021490704D5D4F898119C
:102A1000491CC4F89811761C054603F077FAC11BCF
:102A20004145BAD3C4F88061C4F8A051BDE8F09F15
:102A3000F449002400000258100802582DE9F0471C
:102A4000394C804639490020C4F8A401C4F8A801D3
:102A5000C4F8AC01C4F8B001C4F8B401C4F8B801BA
:102A6000C4F8BC01086800263546000500D50125DC
:102A70000868800401D545F00205086889464004CD
:102A800001D545F00405C4F8C051C4F8C45103F0A1
:102A90003DFA0746D9F8002000204946120500D526
:102AA00001200A68920401D540F002000968490437
:102AB00001D540F00400C10704D0D4F8A811491C86
:102AC000C4F8A811810704D5D4F8B011491CC4F882
:102AD000B011410704D5D4F8B811491CC4F8B81195
:102AE00080EA0501CA0704D0D4F8AC21521CC4F80E
:102AF000AC218A0704D5D4F8B421521CC4F8B421FF
:102B0000490704D5D4F8BC11491CC4F8BC11761C83
:102B1000054603F0FBF9C11B4145BBD3C4F8A461D2
:102B2000C4F8C451BDE8F087F449002410180258D5
:102B3000F0B595B0164600250F46044610A8FEF7DE
:102B40001BFD00B1129D94F824000B282BD017A375
:102B5000B4F810E0228BE18AD4F808C0CDE90ECE9B
:102B6000CDE90C12216A0DF1100EE28BB4F81CC0F5
:102B7000CDF820C00B95CDE90921B4F81AC0A58A7B
:102B8000628AE1688EE8261094F82510D4E90042A4
:102B9000039131460094CDE901200A4A3846FDF7F9
:102BA000C7FC15B0F0BD08A3D2E70000657870320D
:102BB0002D30315F6865785F636F756E7465725F25
:102BC000333200009CC40108657870332D30345FC7
:102BD000646F745F6D61747269785F6C6564000026
:102BE000014802F0E4BA0000D85A002470B5A2B03F
:102BF000064600244FF4C36001258DF80F500223D0
:102C00008DF81D4069038DF80E5009948DF81F4012
:102C10000D9020208DF804508DF8325042028DF82E
:102C2000605006914FF040518DF8384002948DF875
:102C300061408DF81C408DF828408DF862408DF879
:102C40000C400B948DF81E500F948DF81150129477
:102C50008DF840408DF831408DF8124014948DF875
:102C600056401790304616938DF8205005928DF8F7
:102C700054408DF830408DF81050009169468DF821
:102C80000D408DF8554011948DF84C5000F0E2FD48
:102C90001B9568058DF871404FF406718DF86850EA
:102CA00019948DF880408DF870401F908DF8784011
:102CB0001D9030468DF88140219119A900F070FDDA
:102CC00022B070BD40F6B8300FF0A0F807F0A4F9BC
:102CD000BFF35F8F0649012008700FF06DFA0FF007
:102CE0006DFA4FF47A7420460FF090F8FBE700007D
:102CF000954D00243B48002170B588B004680591CB
:102D00001F2C0191049103910091069102D9C81ED4
:102D100008B070BD0121204605AA00F0A3F86FF0AD
:102D20000406A8B90121204603AA00F09BF878B94F
:102D30002D4D059828670398A862FFF743F903987B
:102D400040074DD50021204604AA00F08BF808B1B9
:102D50003046DDE70498C10409D481044FEAC0502D
:102D600002D500283CDB31E0002833DB36E0039855
:102D7000800618D51F21204606AA00F073F890B9E6
:102D8000069AEA66D04302F01C010004000C0AD047
:102D90001004000C07D0182922D0082916D01429B5
:102DA00018D004291AD004216A46204600F05AF8A7
:102DB000B0B90521204601AA00F054F880B9DDE938
:102DC00000010840C1050BD4010601D503209FE78F
:102DD000410601D504209BE7800601D5052097E731
:102DE000022095E7C05B0024F449002400207047CE
:102DF00003F08CB810B5184886B002F033FD1421EA
:102E00006846FDF737FE1548016841F4807101609E
:102E100000680821124C012200F480700590002007
:102E200000916946CDE901200390204602F048FF59
:102E300000222046082103F05EF80A2002F092F8F2
:102E400001222046082103F056F8322002F08AF8C9
:102E500006B0002010BD0000D85A0024E0440258FB
:102E60000020025813460A460146044810B502F0F5
:102E700027FC002801D04FF0FF3010BDD85A0024A5
:102E800013460A460146044810B502F057FE0028D2
:102E900001D04FF0FF3010BDD85A00242F48FEB5A6
:102EA00004681F2C02D96FF00200FEBD12212046DB
:102EB00001AAFFF7D7FF0028F7D1019844F2E001FB
:102EC00000F01F004218204612210192FFF7D8FFA0
:102ED0000028EAD1002120464FF40042FFF7D0FF3E
:102EE0000028E2D103F012F84FF4FA7605460021EB
:102EF0006A462046FFF7B6FF10B16FF00400FEBD32
:102F0000009800040AD503F001F8401BB042EED34C
:102F10000098000402D56FF00100FEBD1B21204681
:102F200002AAFFF79FFF0028F7D102981B2120F487
:102F3000204220460292FFF7A3FF0028EDD1042192
:102F400040F2E1122046FFF79BFF0028E5D1002167
:102F500020464FF49052FFF793FFFEBDC05B002464
:102F60002DE9F34F8BB0DFF8F48100244FF0100A05
:102F70000DF118090DF1280BCDF828A0002310221F
:102F8000CDE9009B0B9802A90CF02CFC00280DDA6F
:102F9000734801680B2906D0C8F86810D8F850109B
:102FA000491CC8F850100DB0BDE8F08F1028D8F8B3
:102FB000440000F10100C8F844007BD10C9841683E
:102FC0000798884276D10C984188BDF81A0088424B
:102FD00070D19DF808004D280BD19DF809103029BB
:102FE00007D19DF80A104B2903D19DF80B104329F6
:102FF00004D000214D288E4602D00DE00121F9E7D2
:103000009DF80900302807D19DF80A00502803D107
:103010009DF80B00432809D05FF000005EEA000134
:103020007BD09DF80C00012877D101E00120F5E765
:103030009DF81400F0BB9DF81500D8BBBDF8160034
:103040000E264FF6FF7141F22105002240BA009092
:1030500002AF0846002317F802C080EA0C2000BF28
:103060005FEA004C01EA400000D568405B1C082B79
:10307000F6D3521CB242EDD30099A8F85810814201
:103080004BD1049ABEF1000F9DF8131010BA20F036
:10309000FF059DF80D0045EA010514D0411E0A29DF
:1030A0003BD29DF80E10012901D0022935D19DF89F
:1030B0000F2000E031E082BB012900D000212A4628
:1030C00006F046FC26E0012804D002280CD0032894
:1030D00015D022E09DF80F1001291ED89DF80E0092
:1030E0002A46FEF731FC15E09DF80E00A8B99DF8C0
:1030F0000F00012811D82946FEF79CFB0AE09DF835
:103100000E0008B10B2808D19DF80F1029B92946E7
:10311000FEF7CAFB58B1012819D0D8F85000401C5E
:10312000C8F85000641C082CFFF426AF3BE7D8F821
:103130004800401CC8F84800C8F854509DF80D00DD
:1031400088F85A009DF80E0088F85B00EAE7D8F886
:103150004C00401CC8F84C00E4E70000288F012414
:103160008C4D00242DE9F04F836A00F11805934639
:103170008C6800271E46B94655F82320D2F80CC0AB
:10318000BCF1000F7EDB05EB830CDCF814C0BCF156
:10319000000F77D191F800C05FEA4C7C43D5D2F89C
:1031A0000CC0D1F824806FF30F0C4CEA080CC2F865
:1031B0000CC0D2F80CC04CF4803CC2F80CC0D0F863
:1031C00000C0DCF8608048F48018CCF8608091F88A
:1031D00000C05FEA0C7C26D5B1F82C80D2F808C07C
:1031E00068F31F4CC2F808C0D2F80CC04CF4003C85
:1031F000C2F80CC0D2F80CC0D1F830802CF4402CAE
:103200004CEA080CC2F80CC0D0F800C0DCF86480AE
:1032100048F48018CCF864800068D0F850C04CF0B6
:10322000806CC0F850C00878C0060BD59068D1F803
:1032300018C06FF30D0040EA0C009060D06840F0B9
:103240008060D060087810F0140F1ED0D06840F075
:103250008040D060BFF35F8FD0685B1C042B40F0D0
:103260000040D06000D31B1F012755F82320D068F1
:1032700000280ADA55F82600BFF35F8FC16821F0F5
:10328000004100E0A3E0C160A1E020681060906808
:10329000D4F804C06FF30D0040EA0C009060DFF832
:1032A00020827F1CA0684FF0000A50B104460068DD
:1032B0005060D2F808C0A0880CEA080C4CEA004024
:1032C00004E0C2F804A0906800EA08009060087862
:1032D000C006D06812D5B1F820C020F4F00040EA52
:1032E000CC40D060D068D1F81CC06FF3110040EA28
:1032F0000C00D060D06840F480201BE0D1F804C0FE
:103300006FF30E0040EA0C00D0600878C00707D0C9
:10331000D068D1F814C020F4403040EA0C00D060EE
:103320000878800607D5D068D1F810C020F040603A
:1033300040EA0C00D0600878400707D59068D1F8C3
:1033400028C020F4404040EA0C009060D06840F073
:103350000050D060D06820F08040D060BFF35F8F15
:10336000D06840F00040D060087880077ED5D068F3
:10337000D1F80CC020F0607040EA0C007AE0D06810
:103380005B1C042B20F08050D06000D31B1F55F82D
:103390002320D06820F00050D060D068002803DBE4
:1033A00005EB83004069A8B155F8261000200CE019
:1033B000BFF35F8FCA68761C042E22F00042CA60F9
:1033C00000D3361F401C55F82610B842F0D3022017
:1033D000BDE8F08FA468206810609068D4F804C03D
:1033E0006FF30D0040EA0C009060A0687F1C58B19C
:1033F000044600685060D2F808C0A0880CEA080CA7
:103400004CEA0040906007E0C2F804A0D2F808C07F
:103410000CEA080CC2F808C00878C006D0680AD5C3
:10342000D1F81CC06FF3110040EA0C00D060D068E6
:1034300040F4802010E0D1F804C06FF30E0040EAA1
:103440000C00D0600878C00707D0D068D1F814C04D
:1034500020F4403040EA0C00D06009F10109BFF3CC
:103460005F8FD06840F00040D06000E003E0D0689B
:1034700020F08040D060A068002880D19068BBF127
:10348000000F02D040F0004001E020F000409060CA
:10349000D06840F08050D06005EB8300696A4161DC
:1034A000EFF31080012181F310882B6109F10101F4
:1034B000AA6A114480F310880020A96288E70000FE
:1034C000FFFF00C02DE9FF4FADF5017D1D46140043
:1034D0008B468E9E20D073A8FDF7CEFDE0B1884FBD
:1034E00097F83B3097F83A2097F83910F88D0DF19E
:1034F0001C0888E80F00B88D97F834203B6A9DF8C7
:10350000E711CDE90520CDE903139DF8E40140B1B1
:10351000022906D3012205E001200DF5057DBDE855
:10352000F08F0022BDF8D811CDE9001002924FF4BF
:10353000C079744A13A8759B4946FCF7F9FF002827
:103540004FF0FF3A7DDD48457BD201AA74990DF119
:103550004C0800914046594682E8610023686AA2FF
:103560005B1C2360819800F0F1F8002869D197F87E
:103570003730B7F9302097F83510786A0DF10C0C18
:103580008CE80F009DF8E8019DF8E51119B10228BB
:1035900001D3012200E000220092CDE901105C4A33
:1035A00013A8779B4946FCF7C3FF002849DD48452F
:1035B00047D2749957A2CDE90018CDE90256236885
:1035C00059465B1C2360819800F0C0F8002838D170
:1035D00097F83830B7F9322097F83610B86A0DF1FD
:1035E0000C0C8CE80F009DF8E9019DF8E61119B16B
:1035F000022801D3012200E000220092CDE901104F
:10360000434A13A8789B4F464946FCF791FF002890
:103610006ADDB946484567D2749941A2CDE90018E0
:10362000CDE90256236859465B1C2360819800F05F
:103630008DF830B97BA8FDF79FFF3C4FA0B33C4805
:1036400000E051E0D0F800C0436B026B01690DF15E
:103650003C0E8EE80E10D0F80CC04369826A416AB5
:103660000DF12C0E8EE80E10026A816983684068A5
:10367000CDE907032F48CDE90912026B9DF8FC3113
:10368000DFF8B4C09DF8FE119DF8FB01CDE90303FE
:10369000CDE905129CF82D009DF8FD11C20704D05C
:1036A000400702D5012201E027E000229DF8FA013F
:1036B00002914946CDE90002BDF8F83113A81F4A2E
:1036C000FCF736FF00280FDD48450DD27C991CA27F
:1036D000CDE90018CDE90256236859465B1C2360EA
:1036E000819800F033F808B1504616E7B86A001D1B
:1036F000B8627398386300200FE7B86AC01CF7E718
:103700007895012460C301087368743430000000A8
:1037100024C40108696E613232365F7531300000B1
:10372000696E613232365F7534340000288F0124AF
:1037300038950124D4950124E05B0024E4C50108F8
:103740007063616C36353234000000002DE9FE43B1
:103750000F468146DDE90A10DDE90C8602904046FD
:10376000CDE9003113460D4A3146FCF7E1FE041E57
:103770004FF0FF350FDDB4420DD21020224600235A
:103780004146CDE9007048460CF08EF9A04202D1C6
:103790000020BDE8FE832846FBE700000CC30108BB
:1037A000F0B5026847F6020E274E4DF2010702F50A
:1037B0008052264DD1F800C01368254C23EA0E0331
:1037C00043EA0C0313600B79026891F80CE002F5F0
:1037D0008052D1F808C01B0343EACE3343EA0C03FE
:1037E000D2F804C02CEA070C4CEA030CC2F804C05F
:1037F00002684F7B02F580520B6A43EA0747D2F812
:10380000003133403B43C2F8003102680B7D02F5C2
:10381000805291F81DC00F69D2F804611B0143EA80
:103820000C332E403B431E43C2F8046100680B7FFB
:1038300000F580508A69D0F8081142EAC37221402D
:103840001143C0F80811F0BD00C0FEFFEFEFC0FF4C
:10385000FFFFC07FF0B50B790C7B0F688A68DB0631
:103860004D7B43EAC4533A438E7B1A43CF7B91F896
:1038700010C042EA855242EA4652BCF1000F42EAC9
:1038800007537CD000224C7C002C43EAC24278D003
:1038900000238E7C0D7F42EA43428F7FD1E90534BD
:1038A00042EA06424E7F1A43224342EA0532002F83
:1038B00042EAC62466D00022CD7F91F8203044EA47
:1038C0008222002B42EA45227ED0002504684B6A02
:1038D00042EA052291F82870464D1A43CE6A2368C1
:1038E00042EA071232432B401343236091F83C20F5
:1038F00091F8383091F8305091F83140520642EA50
:10390000036291F8326042EA854242EA4444BEB31F
:1039100000220368384E4F6B44EA02425C683A4327
:1039200040F20F15344014435C60036891F8406026
:103930004C6CDA6844EA0624AA432243DA6091F820
:1039400054300A6D91F84C4042EA4302ECB3002433
:103950000368B1F848504FF60D76E7011C6F47EA4F
:1039600005452A43344014431C67026891F85630D9
:1039700091F8555052F8904F43EA450303E02BE08D
:1039800032E02BE02CE024F003041C4314600268B6
:103990008C6DD2F8003D23F072032343C2F8003D42
:1039A00091F86020CC6D1AB35FF00003026891F8C3
:1039B000615091F8621044EA8310D2F8303D2C0136
:1039C00044EAC101084301E00CE00FE023F07B0171
:1039D0000143C2F8301DF0BD012254E7012358E72E
:1039E000012269E7012571E7012292E70124AFE78F
:1039F0000123DBE7838004000080F8C02DE9F84F45
:103A000004464FF00108002000904FF04149D4E9EE
:103A10001A574FF0014A04EB8500866C1CE03069B0
:103A200030B9684601F0AEFE009840B130613060B8
:103A3000B8F1000F10D0A06D20B1484603E04FF060
:103A4000000809E05046F0606D1C042D00D32D1FC6
:103A50007F1E04EB8500866C17B1B8F1000FDED134
:103A6000E06EB84210D0681C00F00300BFF35F8F17
:103A7000216800EB4000226901F5805102EBC00093
:103A8000C1F82801C4E91A57BDE8F88F0B4870B592
:103A9000007800250A4C68B100F038FA094991F81D
:103AA0002D00C20706D0400704D5486810B1012098
:103AB000606070BD6560002070BD0000954D002401
:103AC000288F0124E05B002412484FF00A01416076
:103AD000816801F101018160EFF305810E4AC16047
:103AE00002F1040606F10404156804F104020B4B0C
:103AF00002F10401056135684561246884611B6831
:103B0000C3611268026209684162EFF30581816254
:103B100072B6FEE7A449002428ED00E03CED00E089
:103B2000F0B5B3F5804F05D06FF0704140F822102A
:103B30000020F0BD91E838008F898E6950F822107E
:103B400024013343054E44EA05242343314043EA2C
:103B500007430B4340F82230EAE700000000F0CFB3
:103B6000F0B50A6850F8223023F0010340F8223003
:103B70008C68082C2CD000264A68D1E903CE224359
:103B80004CEA060C01F1140342EA0C0242EA0E026E
:103B900093E8F8501A4322430C682A43D1E90C35C4
:103BA000324350F824603A4342EA0C02DFF840C046
:103BB00042EA0E028F6B13431D432F4326EA0C0685
:103BC0003E4340F824600A6BB2F5801F02D007E044
:103BD0004026D1E70A684AB1026842F480120260C6
:103BE0000A681AB10268496B0A4302600020F0BDFE
:103BF0007FFB3F00F0B58C6800EB8202D1E9003614
:103C0000B1F80CE04FEA042C134C0D8A43EA06137A
:103C10000E7D67014CEA0E4C43EA0C0304EB05559C
:103C20002B438D6907EB0666576833432B4307F038
:103C300040452B4353600268D2020BD5098A426883
:103C4000436804EB015122F47002114323F4700322
:103C50000B4343600020F0BD0000F0FFF0B5D1E958
:103C60000843CD690A68C2B10268254322F4F842CC
:103C700013431D430560D1E90125D1E903364C69A1
:103C80002A434568334389691A43EB0B2243DB031C
:103C90000A431A4342600020F0BDD1E9012ED1E968
:103CA000036CD1E9057142EA0E0246EA0C06324382
:103CB0003A430A4301682A4322431A436FF30E0131
:103CC0000A430260E7E7426943F6FE739A4342EA19
:103CD000410141610020704770B591E81C00C9683E
:103CE0006FF01F0506691A4305EB441444EA4121AD
:103CF0000A4306EA45431A430261002070BD0000F2
:103D00002DE9F04F8B8A6FF00F05264C4FF07F4B5B
:103D1000D1F80C9004EB03536FF0FF044FEA042A30
:103D20001AB386684FEA09321F4FA2F580521A4330
:103D30003E4032438260D1E900278E68521E05EB77
:103D400007150F8A2A43C56804EB06240E7E0AEB8A
:103D5000074322431A430BEB06610A4305F0704305
:103D60001A43C2600020BDE8F08F91E804110F4EA5
:103D7000521E0F8A05EB08152A4304EB0C2C06EBA8
:103D800009350E7E42EA0C022A4385680AEB074495
:103D900022431A430BEB06610A4305F070431A43B2
:103DA0008260DFE70000F0FFFF0F0FFF00F0FFFF72
:103DB0002DE9F05F3F4C2068401C206000F082F845
:103DC00000F084F900F0E8F93B4F48B10122384691
:103DD000082102F090F800F075F80120BDE8F09F8E
:103DE00064200EF013F800204FF0010A05464FF052
:103DF000020BA061E0614FF4FA78304E4FF40059A5
:103E0000681CA061C4F804B000220821384602F002
:103E100072F8002243464946304600F04DFA28B178
:103E200001223846082102F066F813E0E069401CE0
:103E3000E0610A200DF0EAFF01223846082102F075
:103E40005AF803206060012243464946304600F09C
:103E500033FA08B107200AE004206060012241F231
:103E600088330103304600F027FA90B108206060E3
:103E7000FA200DF0CBFF6D1C032DC1D3104800229A
:103E8000802102F038F8C4F814A000F01BF80320D9
:103E9000A4E764200DF0BAFF09480022802102F057
:103EA0002AF80521C4F814A0616000F00BF8002086
:103EB00094E70000389501240010025800080258C9
:103EC000001C025870B50E48082102F00FF80128B6
:103ED00000D000200B4C20624FF400510A4D2846C0
:103EE00002F004F8012800D0002060624FF4804105
:103EF000284601F0FBFF012800D00020A06270BD21
:103F00000010025838950124000802582DE9F041AC
:103F1000364C0821204601F0E9FF012835D0002663
:103F2000334F4FF40051384601F0E0FF01282ED006
:103F30005FF0000538464FF4804101F0D7FF0128BB
:103F400000D000202B49002E0E774D77887722680D
:103F5000C2F38112CA776268C2F3C00281F82020DE
:103F60006269C2F3C00281F821202268C2F30122F3
:103F700081F822206269C2F3001281F823200A68C6
:103F800002F101020A6004D006E00126C8E701251B
:103F9000D0E74A68521C4A6015B98A68521C8A6088
:103FA00010B9CA68521CCA6091F82420AAB191F8CD
:103FB00025201AB115B90A69521C0A6191F8262008
:103FC0001AB910B14A69521C4A6191F826203AB1D7
:103FD00030B98A69521C8A6102E0012281F82420EA
:103FE00081F8255081F82600BDE8F08100100258C4
:103FF00000080258D84D002470B586B014216846D8
:10400000FCF738FD1A48016841F0040101600168BD
:1040100001F004010591016841F01001016001689F
:1040200001F010010591016841F080010160006814
:10403000032400250F4E00F080000590642069469F
:104040008DE83100304601F03BFE102069468DE8D6
:104050003100304601F034FE402069468DE83100E1
:10406000054801F02DFEFFF72DFF06B070BD0000E2
:10407000E0440258001002580008025810B586B0FB
:1040800014216846FCF7F6FC0E48016841F08001F7
:104090000160006800F080000590FCF76FFE0A4C9C
:1040A00001228021204601F026FF0021802000907F
:1040B00001222046CDE901210391694601F000FE6D
:1040C00006B010BDE0440258001C02583EB5204D19
:1040D00000248DF8004001940294E86A401CE862D4
:1040E000E86A012807D181031A4801F0FFFE012880
:1040F00000D00020A8636C63FFF7C0FFFCF733FE1D
:1041000001236A460521272004F0A0FAA0B9012363
:104110006A460A21272004F099FA68B9022312217D
:10412000272001AA04F092FA30B9022300212720A7
:1041300002AA04F08BFA20B14FF0FF30286301206F
:104140003EBD01202C63EC63686300203EBD00008F
:10415000389501240008025838B504466A46000A1A
:104160008DF80040022312218DF80100272004F071
:104170006DFA002807484FF0000104D04A1E026380
:104180004163012038BD01220163C4634263002002
:1041900038BD0000389501242DE9FE4FDFF810915D
:1041A00000254FF0010A2F468DF800508DF804507D
:1041B0008DF80850C9F804A0C9F81450FFF75EFF45
:1041C0005FF00006FCF7CFFDFF21052005F0BFFFE3
:1041D000044601200DF01AFE00215C2005F0B7FF17
:1041E00040EA040801200DF011FEDF210D2005F04A
:1041F000AEFF40EA080402200DF008FE05206946E3
:1042000005F0A0FF40EA04080D2001A905F09AFF7F
:1042100050EA080423D19DF80000800603D59DF8DC
:104220000400DF2815D02021512005F090FF202127
:1042300004464D2005F08BFF40EA040802200DF0F3
:10424000E5FD012002A905F07DFF50EA080402D037
:1042500005E0012709E09DF808008006F9D40A204E
:104260000DF0D4FD761C0A2EACD312484E46C9F888
:1042700008409DF80010C9F80C109DF80410C9F80A
:1042800010104CB947B10022802101F034FEC6F86D
:1042900014A00020BDE8FE8F06217160012280215C
:1042A00001F029FE7561FFF70DFE0120F2E7000025
:1042B00038950124001C02582DE9F0411E46154690
:1042C0000F46804601F022FE04460AE001F01EFE81
:1042D000001BB04202D30320BDE8F08101200DF0A5
:1042E00095FD3946404601F001FEA842EED100207E
:1042F000F2E70000114970B54860886800F10100DC
:104300008860EFF305800E4AC86002F1040606F1EA
:104310000404156804F104020A4B02F104000D6163
:1043200035684D6124688C611B68CB6112680A6234
:1043300000684862EFF30580886270BDA4490024DC
:1043400028ED00E03CED00E070470000F0B590F88B
:104350006020012A22D0C1EBC102012780F86070E1
:10436000022380F8613000EB8202284D138F168EF5
:10437000B2F83CC0D46A1B05283244EA064643EA38
:104380004C530A2C46EA03060AD0092C08D0137BAA
:1043900046EA036349B10B2C1AD01DE00220F0BDA0
:1043A000D36803F07F433343F4E701684C6AAC43BE
:1043B0001C434C62016813688B6151680A2901D063
:1043C00009291BD1D168026821F07F41916215E073
:1043D000118B0F4D43EA81430168CC69AC431C4308
:1043E000CC61016813680B6151680A2901D0092961
:1043F00004D1D168026821F07F411162002180F868
:10440000617080F860100846F0BD00000F0033FFB7
:104410000F003FFF2DE9F0470446006800274FF0EA
:1044200004084FF0010946680568F10714D0E90552
:1044300012D5036823F480730360606E40F00100BE
:1044400060662068C0F8089084F8618084F8607025
:10445000616A09B120468847B00615D5A80413D56E
:1044600020682022036823F40053036020688260E0
:10447000606E40F00200606684F8618084F86070CD
:10448000616A09B120468847300715D5280513D53C
:1044900020680822036823F40063036020688260B8
:1044A000606E40F00400606684F8618084F860709B
:1044B000616A09B12046884770070CD568050AD59E
:1044C0002068026822F4806202602068C0F80880D8
:1044D000204600F071F8B00713D5A80511D5206863
:1044E0000222036823F40073036020688260606E18
:1044F000606684F8619084F86070216A09B1204692
:104500008847F00612D5E80410D52068016821F428
:1045100080510160226810219160616E616684F8AB
:104520006190204684F86070FFF70EFFBDE8F087C9
:104530002DE9F041040004D094F86100002518B181
:1045400007E00120BDE8F081204684F8605000F0CB
:1045500035F8184E022084F861000123D4E90010D8
:10456000D4F81CC040F207120F6840EA0C00374034
:10457000384308602068A769A168466B39439643B1
:10458000314341632068E268016C6FF30F0111430E
:1045900001642068218AA28A466B090541EA4251DA
:1045A00026F4401211434163656684F861300020AF
:1045B000C8E70000BFFFF8FF7047000008B50068BB
:1045C0000B49884212D10B48016841F0100101608B
:1045D00000680022052100F0100000905A2001F030
:1045E0002DFFBDE808405A2001F01ABF08BD0000A9
:1045F00000100052D44402582DE9F05F28B190F821
:104600003510022904D0802141650120BDE8F09FCA
:10461000904C904B0168183C18338E4ADFF83C925E
:10462000A1428D4CDFF838E28E4FDFF83CB2DFF864
:104630003CA28F4D8F4E31D091422FD099422DD038
:10464000A1422BD0494529D0714527D0B94225D068
:10465000DFF810C20CF1180C61451FD0DFF808C25A
:10466000ACF1600C614519D0DFF8FCC1ACF1480C2D
:10467000614513D0DFF8F0C1ACF1300C61450DD0CD
:10468000DFF8E4C1ACF1180C614507D0594505D0FD
:10469000514503D0A94201D0B1422CD1DFF8B4C1B9
:1046A0004FF0040880F83580ACF1180C61451DD03E
:1046B00091421BD0994219D0A14217D0494515D03B
:1046C000714513D0B94211D06648183081420DD0DF
:1046D00065486038814209D063484838814205D036
:1046E00061483038814201D05F481838086820F0AE
:1046F00001000860ABE0D1F800C02CF00E08DFF834
:1047000054C1C1F80080ACF1180C0168614527D094
:10471000914225D0994223D0A14221D049451FD0B2
:1047200071451DD0B9421BD0DFF838C10CF1180C0F
:10473000614515D0DFF830C1ACF1600C61450FD098
:10474000DFF824C1ACF1480C614509D0DFF818C18D
:10475000ACF1300C614503D0DFF80CC1ACF1180CA2
:10476000D1F800C02CF0010CC1F800C0DFF8E480E3
:104770004FF0010C0168A8F11808414546D091425C
:1047800044D0994242D0A14240D049453ED07145E3
:104790003CD0B9423AD0334A1832914236D0324AEC
:1047A000603A914232D0304A483A91422ED02E4A55
:1047B000303A91422AD02C4A183A914226D0594593
:1047C00024D0514522D0A94220D0B1421ED02A4A3D
:1047D00091421BD0284A1432914217D0264A2832DF
:1047E000914213D0244A3C3291420FD0224A503297
:1047F00091420BD0204A6432914207D01E4A78324F
:10480000914203D01C4A8C32914218D1016E0A6841
:1048100022F480720A6090F85C20816D02F01F0221
:104820000CFA02F24A60D0E919124A60C16E31B145
:104830000A6822F480720A60D0E91C124A600022E1
:10484000016D80F835C080F8342001B18847002020
:10485000DCE60000280002405800024070000240E0
:1048600088000240A0000240700402408804024018
:10487000A0040240B8040240085402582DE9FC5F2D
:104880000446F74E0020DFF8D88300904FF416520C
:10489000F44808F11808A56DDFF8C493DFF8C0A349
:1048A000016809F1300920680AF1480AB1FBF2F108
:1048B000B04201912F68D5F800C0DFF8ACB335D015
:1048C0004146884232D0484530D050452ED05845D8
:1048D0002CD0E5491831884228D0E349303188424C
:1048E00024D0E1494831884220D0E04988421DD097
:1048F000DE491831884219D0DC493031884215D060
:10490000DA494831884211D0DFF860E30EF1600ED9
:1049100070450BD0D54A7832904207D0D34B9033B4
:10492000984203D0D149A83188427DD194F85C20C7
:10493000082102F01F0201FA02F23A424AD0B042C4
:1049400032D0404530D048452ED050452CD0584527
:104950002AD0C54A1832904226D0C34A30329042FB
:1049600022D0C14A483290421ED0C04A90421BD049
:10497000BE4A1832904217D0BC4A3032904213D00F
:10498000BA4A483290420FD0B84A603290420BD0B7
:10499000B64A7832904207D0B44A9032904203D05F
:1049A000B24AA832904203D1026802F0040202E047
:1049B000026802F008026AB1026822F00402026092
:1049C00094F85C0000F01F008140A960606D40F029
:1049D0000100606594F85C00012100F01F00814037
:1049E000394240D02068B04234D0404532D04845AA
:1049F00030D050452ED058452CD09B4A183290428A
:104A000028D0994A3032904224D0974A4832904276
:104A100020D0964A90421DD0944A1832904219D024
:104A2000924A3032904200E0AFE113D08F4A4832D0
:104A300090420FD08D4A603290420BD08B4A783230
:104A4000904207D0894A9032904203D0874AA832D8
:104A500090427DD1406910F0800F04D0A960606D54
:104A600040F00200606594F85C00042100F01F0033
:104A7000814039423ED02068B04232D0404530D0EB
:104A800048452ED050452CD058452AD0764A183269
:104A9000904226D0744A3032904222D0724A483234
:104AA00090421ED0714A90421BD0704A18329042F8
:104AB00017D06E4A3032904213D06C4A483290423E
:104AC0000FD06A4A603290420BD0684A78329042E6
:104AD00007D0664A9032904203D0644AA83290428E
:104AE0004ED1006810F0020F04D0A960606D40F054
:104AF0000400606594F85C00102100F01F00814004
:104B0000394258D02068B04234D0404532D0484570
:104B100030D050452ED058452CD0534A18329042B0
:104B200028D0514A3032904224D04F4A48329042E5
:104B300020D04E4A90421DD04C4A1832904219D093
:104B40004A4A3032904215D0484A4832904200E0FA
:104B500014E00FD0454A603290420BD0434A78327D
:104B6000904207D0414A9032904203D03F4AA83247
:104B7000904207D1006800F0080006E0006872E784
:104B80000068B7E7006800F00400A0B1A9602068E1
:104B90000168490304D50068000308D5A16C07E04B
:104BA0000168C90503D4016821F008010160216C86
:104BB00009B12046884794F85C00202100F01F00CE
:104BC0008140394279D02068B04232D0404530D05F
:104BD00048452ED050452CD058452AD0224A18326C
:104BE000904226D0204A3032904222D01E4A48328B
:104BF00090421ED01D4A90421BD01C4A183290424F
:104C000017D01A4A3032904213D0184A4832904294
:104C10000FD0164A603290420BD0144A783290423C
:104C200007D0124A9032904203D0104AA8329042E4
:104C300003D1006800F0100002E0006800F00200FC
:104C4000B0B3A96094F835000428206801680FD03B
:104C500049037ED5006800032BD4616C2AE0000074
:104C600010000240504C002470000240100402402A
:104C700021F0160101602068416921F08001416145
:104C8000206C08B9A06C20B12068016821F00801EF
:104C9000016094F85C303F21012003F01F030022E3
:104CA0009940A96084F8350084F83420216D65E0CE
:104CB00003E0E16B09B120468847606D00287DD094
:104CC000606DC00759D02068042184F83510B042C7
:104CD0002BD0404529D0484527D0504525D05845B0
:104CE00023D09D49884220D09B49183188421CD04E
:104CF00099493031884218D09849884215D097494F
:104D00001831884211D09549303188420DD09349ED
:104D10004831884209D091496031884205D08F4995
:104D20007831884201D08D499031016821F001012C
:104D3000016020680099019A491C0091914202D8B3
:104D40000168C907F6D10068C00710D003200FE042
:104D5000FFE70168C905ACD403680121002223F0F4
:104D60001003036084F8351084F83420A1E7012093
:104D700084F83500002084F83400E16C00291DD04F
:104D800002B02046BDE8F05F0847754988421DD053
:104D900073491431884219D071492831884215D09D
:104DA0006F493C31884211D06D49503188420DD055
:104DB0006B496431884209D0694900E084E0783168
:104DC000884203D066498C3188427DD194F85C805A
:104DD0000427016808F01F0807FA08F717EA0C0F04
:104DE000009746D04F0744D500980F04686003D55C
:104DF000C8033CD4A16CC1E7880638D42068B0420F
:104E00002DD055496039884229D0484527D0504592
:104E100025D0584523D05049884220D04E491831DA
:104E200088421CD04C493031884218D04B498842C6
:104E300015D04A491831884211D04849303188424A
:104E40000DD046494831884209D0704507D090427C
:104E500005D0984203D04149A831884203D1016866
:104E600021F0080102E0016821F004010160216CD9
:104E700084E7022707FA08F717EA0C0F00974ED0CD
:104E80008F074CD500980F04686003D5C80344D43D
:104E9000616C73E7880640D42068B0422FD02E4959
:104EA000603988422BD0484529D0504527D05845F5
:104EB00025D02949884222D02749183188421ED05E
:104EC00025493031884200E044E018D02349884227
:104ED00015D022491831884211D0204930318842FA
:104EE0000DD01E494831884209D0704507D0904204
:104EF00005D0984203D01949A831884203D10168EE
:104F000021F0140102E0016821F00A010160012191
:104F100084F83510002084F83400E16B2EE7082275
:104F200002FA08F212EA0C0F14D0090712D5016830
:104F300021F00E01016094F85C100120002201F0C4
:104F40001F0100FA01F16960606584F8350084F89A
:104F5000342012E7BDE8FC9F8800024010040240A4
:104F60000854025870B5044600F0D0FF0546601C96
:104F700002D004480078044400F0C8FF401BA0425F
:104F8000FAD370BD444C00247047000070B50F4C3C
:104F90000546D4F82401401CC4F8240104F5927499
:104FA000284600F015F86060284600F0FDF8A06083
:104FB000284600F00DF8000606D504481838806829
:104FC000BDE870400DF072B870BD0000F4490024D7
:104FD000D0F88C007047D0F88800704700297DD049
:104FE0000268126802F00C02CA6202681268C2F318
:104FF000001281F828200268126802F060024A62FA
:105000000268126842F30022521C81F820200268D4
:105010001268C2F34022CA770268126842F3802203
:10502000521C8A7702681268C2F3C0224A7702686B
:105030001268C2F300320A770268126802F4005262
:105040008A610268126802F480424A61026812684A
:10505000C2F300428A740268126842F34042521C52
:105060004A740268126842F3C042521C0A74026811
:105070001268C2F30052CA7302681268C2F3405247
:105080008A7302681268C2F380524A730268126817
:10509000C2F3C0520A730268126802F0E0628A60CA
:1050A00002681268C2F3C0620A710268126802F0F4
:1050B000E0420A6002685268C2F30D024A63026865
:1050C000526842F30042521C81F832200268526852
:1050D000C2F3404281F83120026800E062E0526889
:1050E000C2F3804281F8302002685268C2F3006245
:1050F00081F8382002685268C2F34462CA630268C9
:10510000D268C2F3002281F840200268D26802F01F
:105110000F024A640268126FC2F3400281F8542001
:105120000268126F42F3C012521C81F84C200268D0
:10513000126F02F070020A650268126F120C8A6424
:105140000268D2F8902002F0010281F8562002682D
:10515000D2F89020C2F3400281F855200268D2F8BC
:10516000002D02F072028A650268D2F8302D02F03A
:105170002302CA650268D2F8302DC2F3C00281F85A
:1051800062200268D2F8302DC2F3001281F861204B
:105190000068D0F8300D40F38010401C81F86000AA
:1051A0000020704701207047D0F8900070472DE92B
:1051B000F04701684FF0B04A044601F58050D1F83D
:1051C000B060D0F86051D0F83471DAF8A880690680
:1051D00008D5790606D548F24001C0F8601120468E
:1051E00000F0FAFA05EA0700C00709D0206848F283
:1051F000010100F58050C0F86011204600F08EFCDF
:1052000068044FF0E0092AD5780428D5D4F888003E
:10521000E90440F00800C4F88800206810D5A0F622
:10522000CC6041F2021300F50050C26A1A40C4F883
:105230008C20026822F440420260C4F884900BE0A3
:1052400000F580504FF4CD41D0F8602102F4CD42FA
:10525000C4F88C20C0F860112046FFF797FE700458
:105260004FF0000501D4B00411D5D4F8881041F0F6
:105270001001C4F888102168D1F8B810C4F8901053
:10528000C4F884902046FFF781FEC4F89050F006E1
:105290000BD52068D0F8C00000F06000C4F894007E
:1052A000204600F095F9C4F89450B0060BD520685C
:1052B000D0F8D00000F00F00C4F898002046FFF7A7
:1052C00063FEC4F898505FEA482006D54FF4800189
:1052D000CAF8A810204600F02FFCBDE8F0870000B7
:1052E000F8B5040003D0D4F8840010B107E0012021
:1052F000F8BD2320C4F88400204600F0D7F86648A3
:10530000016841F002010160006800F002000090B5
:10531000207A08B14FF4000003F036F85F492068A6
:10532000096800F58050016841F00101016000F05A
:10533000EDFDE02605464FF4FA7706E000F0E6FDC5
:10534000401BB84201D9042023E0206800F58050BA
:105350000068C007F2D1204600F084FA02F0E4FAB7
:105360004F4A2168B0FBF2F0401EC1F8DC00204635
:10537000FDF73CFC206800F58050D0F8001121F4C6
:10538000E01141F40021C0F800116169880705D0DF
:105390000120C4F88800C4F88460A8E7206847F6B4
:1053A000FE7300F58050D0F808219A4342EA41018B
:1053B000C0F8081100210846E26800EB400504EB44
:1053C000800302EBC502116051609160D160401C06
:1053D00004289A61F0D3A1620323206800F580506D
:1053E000C0F82C312068E26800F58050C0F8142124
:1053F0002068E26800F58050C0F820215FF00002CC
:10540000206902EB420604EB820500EBC600016056
:1054100041608160C160521C0161042A4161A8643D
:10542000EED3E1652166A166E166A165206800F51D
:105430008050C0F830312068226900F58050C0F8F3
:105440001C212268206902F580524830C2F82801E8
:105450001025D4E90060134A134B8088C6F8000376
:10546000D4E900600778D0F8010047EA0020C6F8C8
:1054700004032068D0F80C671643C0F80C67206856
:10548000D0F810271A43C0F81027C4F88810C4F8C1
:1054900084500020F8BD0000F44402580404005871
:1054A00040420F006000020C00C0200C2DE9F04FBC
:1054B00087B0044614216846FBF7DCFA3F492068B0
:1054C000884277D13E48016841F40041016001689B
:1054D00001F400410591016841F4803101600168E7
:1054E00001F480310591016841F4003101600068E8
:1054F00000F40030059032480830016841F00401A2
:105500000160016801F004010591016841F00101A9
:105510000160016801F001010591016841F040015D
:10552000016000680B2701AA4FF0320800F040002C
:10553000CDF80080022469460025CDE904700326D9
:10554000204882E8700000F0BBFB01AA4FF08609FA
:10555000CDF8009069461C4882E8F00000F0B0FBEE
:1055600001AADFF868B04FF4D04ACDF800A0694630
:10557000584682E8F00000F0A3FB01AACDF80080B5
:105580001048694682E8F00000F09AFB0E48694630
:10559000CDF8009000F094FB69465846CDF800A085
:1055A00000F08EFB002205213D2000F047FF3D204A
:1055B00000F036FF07B0BDE8F08F00000080024029
:1055C000D844025800080258000002580018025837
:1055D00070472DE9F84F4FF0000704465FEA0109D4
:1055E000B84604D0D4F8840023285ED106E0D4F86D
:1055F000880040F00100C4F8880056E0E66D4FF0E6
:10560000000BE06E04EB8601C0F1040A8D6C39E0FA
:10561000E868400003D56868A06728686067E868A4
:10562000800001D4E06F28B3E868800003D5C4F897
:1056300060B0C4F864B0E868EA68616EC0F30E0058
:10564000D200A0EB0100009003D5E9684FF00108FB
:10565000216704F1800100982A6983B2081F00F0D5
:10566000C7F8206E401C2066626E00981044606689
:10567000C5F810B0761C042E00D3361F7F1C04EB37
:105680008600856CE868002804DB574502D2B8F133
:10569000000FBDD0E06EC019E06602D02046FEF7D4
:1056A000ADF9B8F1010FE66502D00120BDE8F88F31
:1056B000E26F0020C9F80020C4F87CB0F6E70000D3
:1056C0002DE9F041044600681E46D0F80032DB07A1
:1056D00019D1D0F8003223F0787343EA415121F414
:1056E000F81141EA024141F00D01C0F8001200F04A
:1056F0000DFC4FF47A77054608E000BF00F006FC89
:10570000401BB84202D90120BDE8F0812068D0F8E2
:105710000002C007F2D12068D0F8040280B23060E5
:105720000020F1E72DE9F04700F118058046012738
:10573000D5E90A641BE000BF05EB8409761ED9F8A1
:105740001400D0B104EB4402D8F80C100C2303EB86
:10575000C202895800290DDB00F0ECF90021C9F8DC
:105760001410641C042C00D3241FC5E90A640EB174
:10577000002FE1D10020BDE8F087641C042CF6D393
:10578000241FF4E71CB5044610480AF0BFFF0300CD
:105790000FD003F1200020600D484FF4C061186164
:1057A00041222068CDE90001002108460CF0F4FEFA
:1057B0001CBD084801210022A0F118031970D0F87F
:1057C0004C11491CC0F84C1122601CBD10BF0108CF
:1057D000252C0108F44900240448D0F80811491C7C
:1057E000C0F80811183880680CF060BCF449002437
:1057F00030B5A2F12004002525602581638105686C
:105800001DB10D682C600C6004E00460FBE70189A9
:105810001944018100680028F9D1D1181F3122F004
:105820001F0021F01F01091A00290BDDBFF34F8F64
:10583000054A1060203020390029FADCBFF34F8F71
:10584000BFF36F8F30BD00005CEF00E010B519B101
:10585000D0F88420102A01D0012010BDFDF7FAFFF6
:10586000002010BD70B505460068D0F8000220F495
:10587000706402F059F81049884202D244F400746E
:1058800016E00E49884202D244F4407410E00C49FC
:1058900088420DD30B49884202D244F4807407E059
:1058A0000949884202D244F4806401E044F4A064CF
:1058B0002868C0F8004270BDC00E1602008793032E
:1058C00000E1F50580D1F00880B2E60E70B504461F
:1058D000D0F88400102801D0012070BD2325C4F821
:1058E000845001210420A165E0662046FEF786F879
:1058F00020684DF2C10100F58050D0F8042142F03B
:105900000102C0F80421206800F58050D0F8082179
:1059100042F00102C0F80821206800F58050D0F85C
:10592000602142F48172C0F860212068D0F8002D17
:1059300042F00102C0F8002D2068026842F0020225
:1059400002602068026842F001020260206800F5EF
:105950008050D0F834210A43C0F83421C4F8845070
:10596000002070BD10B5D0F88410232901D001208B
:1059700010BD23214DF2C104C0F88410002102683B
:1059800002F58052D2F83431A343C2F834310268B0
:1059900002F58052D2F8043123F00103C2F8043139
:1059A000026802F58052D2F8083123F00103C2F8F0
:1059B00008310268136823F0010313600268D2F80B
:1059C000003D43F00103C2F8003D0268136823F074
:1059D0000203136000EB8102926CD368491C042916
:1059E00023F08043D360F5D3002282651021C0F8F4
:1059F0008410104610BD2DE9F0411546044621B132
:105A0000D4F88400232805D055E0D4F8880040F06D
:105A1000010008E000222046FDF7A4FB30B1D4F8D5
:105A2000880040F00200C4F8880044E0BFF34F8FC4
:105A3000A06A04EB8001401C04288E69A06201D397
:105A4000001FA0620146206804EB810100F5805030
:105A50008969C0F8201100F059FA07461CE0206857
:105A600000F58050D0F86001C0040DD5D4F888004E
:105A700040F00800C4F88800206800F58050D0F895
:105A80006001C4F88C0016E0681C05D000F03EFAF6
:105A9000C01BA84206D82DB1F0680028DFDB00202B
:105AA000BDE8F081D4F888104FF0405041F0040177
:105AB000C4F88810F0600120F2E710B5044621B167
:105AC000D4F88400232805D011E0D4F8880040F0F1
:105AD00001000AE0486B0122E0632046FDF742FB2B
